:020000020000FC
:100000002EC07DC07CC01895189518951895189528
:100010001895189518951895189518951895189578
:10002000189518951895189518950000000001006E
:1000300002000300050008000C00110016001C005F
:1000400024002C0035003F004B0057006500740071
:1000500084009500A800BC00D100E700FF00F894E0
:100060001FED1DBF17EF18BB1FEF12BB18E017BB2A
:1000700010E011BB17E016B910EC1BBF19E01EBD54
:1000800000273327442728C0EAE2F0E0E40FF01FFE
:10009000E40FF01FA591B491BBBDAABDCCEADDE091
:1000A000A4E6B0E03A9511F4219709F120B32C7041
:1000B000B9F711970000D1F7A4E6B0E020B32C7097
:1000C000D9F311970000D1F7283049F0243031F7E7
:1000D000442321F34A95C1F60FBD08BBDFCF44236B
:1000E00011F411E81FBD4931C9F24395CDCF10E29B
:1000F000442309F4106115BF78948895CFCFF89404
:0401000005BF18958A
:00000001FF
