:020000020000FC
:100000002CC079C078C01895189518951895189532
:100010001895189518951895189518951895189578
:10002000189518951895189518950000010002006C
:10003000040007000C0012001B00250031004000E6
:10004000510065007B009400B000CF00F100150165
:100050003D0169019801CA01FF01F8941FED1DBF20
:1000600017EF18BB1FEF12BB18E017BB10E011BB56
:1000700010EC1BBF19E01EBD00273327442728C002
:10008000EAE2F0E0E40FF01FE40FF01FA591B49155
:10009000BBBDAABDC8E8D3E1A2E3B0E03A9511F434
:1000A000219709F120B32C70B9F711970000D1F70F
:1000B000A2E3B0E020B32C70D9F311970000D1F780
:1000C000283049F0243031F7442321F34A95C1F612
:1000D0000FBD08BBDFCF442311F412E81FBD473129
:1000E000C9F24395CDCF10E2442309F4106115BF46
:0C00F00078948895CFCFF89405BF189540
:00000001FF
