:020000020000FC
:100000002BC078C077C01895189518951895189535
:100010001895189518951895189518951895189578
:10002000189518951895189518950000020003006A
:100030000400060008000C00100016001D0025003A
:100040002F003A00460054006300740087009B00B4
:10005000B100C900E300FF00F8941FED1DBF17EFCA
:1000600018BB1FEF12BB18E017BB10E011BB10EC60
:100070001BBF19E01EBD00273327442728C0EAE232
:10008000F0E0E40FF01FE40FF01FA591B491BBBDA9
:10009000AABDCCEADDE0A4E6B0E03A9511F42197E0
:1000A00009F120B32C70B9F711970000D1F7A4E63D
:1000B000B0E020B32C70D9F311970000D1F72830AD
:1000C00049F0243031F7442321F34A95C1F60FBD9E
:1000D00008BBDFCF442311F411E81FBD4631C9F23C
:1000E0004395CDCF10E2442309F4106115BF7894F5
:0A00F0008895CFCFF89405BF18954E
:00000001FF
