:020000020000FC
:100000002AC075C074C0189518951895189518953C
:100010001895189518951895189518951895189578
:10002000189518951895189518950000010002006C
:100030000300050008000C00110018002000290032
:10004000330040004E005D006F0082009700AE005C
:10005000C700E200FF00F8941FED1DBF17EF18BBAB
:100060001FEF12BB18E017BB10E011BB10EC1BBF59
:1000700019E01EBD00273327442726C0EAE2F0E03E
:10008000E40FF01FE40FF01FA591B491BBBDAABD12
:10009000C8E8D3E1A2E3B0E03A9511F42197F9F072
:1000A00020B32C70B9F71197D9F7A2E3B0E020B3D1
:1000B0002C70D9F31197D9F7283049F0243041F743
:1000C000442331F34A95D1F60FBD08BBE1CF442359
:1000D00011F411E81FBD4531D9F24395CFCF10E29D
:1000E000442309F4106115BF78948895D1CFF89412
:0400F00005BF18959B
:00000001FF
