:020000020000FC
:1000000032C0189518951895189518951895189543
:100010001895189567C018951895189518951895FE
:1000200018951895189500000000010002000500C1
:1000300009000E0014001C0024002E0039004500A9
:10004000520060006F0080009100A400B800CD0055
:10005000E300FA0013012C014701630180019E01B6
:10006000BD01DE01FF01F8941FED1DBF13EF18BBAA
:100070001FEF12BB1CE017BB10E011BB19E01EBD47
:1000800012E81FBD00273327E6E2F0E0E30FF01F80
:10009000E30FF01FA591B491BBBDAABDA8EEB3E0DC
:1000A00020B32C70D9F711970000D1F7A8EEB3E078
:1000B00020B32C70D9F311970000D1F7283051F0FC
:1000C000243061F7332351F33A95F1F611271FBD20
:1000D00018BBE4CF332311F412E81FBD3F31F1F216
:1000E0003395D2CF18B115FB112712F918BB18950B
:00000001FF
